:10000000A4C3BEC372C5BCC3BBC3BAC34ACEB8C3C4
:10001000B7C3B6C3B5C3B4C3B3C3B2C3B1C3B0C32C
:10002000AFC3AEC3ADC3B8C9E0C9DFC9DEC99CC99F
:10003000DCC9DBC9DAC9C4C9D8C9D7C9D6C9D5C9C9
:10004000D4C99CC92DC8D1C992C933C839C8CDC932
:10005000CCC9CBC953C859C825C85EC864C8C5C96E
:10006000C4C9B8C87FC885C88BC8C9C890C8BDC92D
:10007000BCC93EC8E7C8B5C8F3C8BAC8F8C8B5C94E
:10008000B4C9D9C810C908C9E4C8FFC8F7C8ADC900
:10009000ACC9ABC998C8C8C8C0C8B8C87FC8A5C9CA
:1000A000A4C944C989C881C84CC811C843C89DC9DE
:1000B0009CC945C94DC94CC830C910C813C995C998
:1000C00094C993C992C991C990C91EC98EC98DC9D5
:1000D000F5C845C80AC889C988C987C986C985C9F4
:1000E00084C983C982C981C980C97FC9EBC87DC958
:1000F0007CC9E6C77AC983C889C877C976C975C972
:10010000E6C743C910C8B3C8B9C848C8D3C86DC981
:100110006CC9DFC83CC8E6C8EEC80CC822C9B8CB59
:10012000C7CBD4CBE5CBEECBF3CBFACB01CC636220
:100130006160646566675352515054555657434247
:1001400041404445464703020100040506071312D7
:100150001110141516177C7E78797A7B7FA0C0A8C1
:100160003FD9F1DA12DB3021007F2200078D14AF76
:100170004B455920415354415254555000000044BE
:100180004F574E004C4546540052494748544B4542
:100190005920424B455920434B4559205A4B45590C
:1001A00020594B455920584D4F44450043530000BA
:1001B00000000000410000000000000051000000AD
:1001C00000000000310000000000000030000000CE
:1001D000000000005000000000000000454E5400E8
:1001E0000000000053500000000000005A00000012
:1001F0000000000053000000000000005700000055
:100200000000000032000000000000003900000083
:10021000000000004F000000000000004C00000043
:1002200000000000535300000000000058000000D0
:100230000000000044000000000000004500000035
:100240000000000033000000000000003800000043
:100250000000000049000000000000004B0000000A
:10026000000000004D0000000000000043000000FE
:1002700000000000460000000000000052000000E6
:100280000000000034000000000000003700000003
:100290000000000055000000000000004A000000BF
:1002A000000000004E0000000000000056000000AA
:1002B00000000000470000000000000054000000A3
:1002C00000000000350000000000000036000000C3
:1002D0000000000055000000000000004800000081
:1002E00000000000420000000000000052455300E2
:1002F000000000004E4D4900000000004B4A205510
:10030000500000004B4A20444F574E004B4A204CAF
:10031000454654004B4A2052494748544B4A2046D0
:1003200049524500000000000000000000000000ED
:10033000000000000000000000000000F867F867FF
:1003400000000000000000000000C000F80078007D
:100350000000C000F800780000000000C00CF03F72
:10036000F03FC00CC00CF03FF03FC00C000078180C
:10037000FC38CE71FFFF8E731C3F181E000000007A
:100380001C301C3C1C0FC003F0383C380C380000FB
:100390000000781EFC3FCE718663CE77FC3E787CF1
:1003A00000660000780078000000000000000000F7
:1003B00000000000000000000000F81FFC3F0E706D
:1003C0000660000000000000000006600E70FC3FA8
:1003D000F81F0000000000000000B00DB00DC003C9
:1003E000F00FF00FC003B00DB00D000080018001D0
:1003F0008001F00FF00F80018001800100000000FB
:10040000000000B0007000000000000000000000CC
:100410008001800180018001800180018001000055
:10042000000000000030003000000000000000006C
:1004300000000000000000000078C07FFC073C00C6
:10044000000000000000F81FFC3F0E7686616E7011
:10045000FC3FF81F00000000C00078000C00FE7F89
:10046000FE7F000000000000000018701C78066C81
:1004700006660663FE61FC60000000000C180E3882
:100480000670C660C660FE3F3C1F00000000000F03
:10049000C00F700C1C0CFE7FFE7F000C00000000E3
:1004A000E019FE39DE70C660C660863F061F000098
:1004B0000000F81FFC3F8E61866186618E3F0C1F35
:1004C0000000000006000678067FE607FE001E001A
:1004D000060000000000781EFC3F86618661866190
:1004E000FC3F781E00000000F831FC7306630663D1
:1004F0000673FC3FF81F0000000000000000803180
:10050000803100000000000000000000000000003A
:1005100080B18071000000000000000000000003B6
:100520008007C00FE01C70383870186000000000B1
:10053000801980198019801980198019801900008C
:100540000000186038707038E01CC00F800700038E
:10055000000000007800FC00CE6C066E0E07FC0365
:10056000F8010000800F40102023A024A024202B9D
:100570004028800700000000C07FF87F3E06060686
:100580003E06F87FC07F00000000FE7FFE7F866190
:100590008661FE617C7F003E00000000F81FFC3F8A
:1005A0000E7006600E703C3E381E00000000FE7F9C
:1005B000FE7F066006600E70FC3FF81F0000000022
:1005C000FE7FFE7F866186618661866186610000AE
:1005D0000000FE7FFE7FC600C600C60006000600C3
:1005E00000000000F81FFC3F0E7006630E733C3FD6
:1005F000381E00000000FE7FFE7F000300030003A2
:10060000FE7FFE7F0000000006600660FE7FFE7F2A
:1006100006600660000000000018003806700670D2
:10062000FE3FFE1F0600060000000000FE7FFE7F6A
:10063000C003E007781E1E78066000000000FE7F01
:10064000FE7F00600060006000600060000000004D
:10065000FE7FFE7F1C00F0031C00FE7FFE7F00007B
:100660000000FE7FFE7F7800E0018007FE7FFE7FB6
:1006700000000000F81FFC3F0E7006600E70FC3F8B
:10068000F81F00000000FE7FFE7F0603060306033E
:10069000FE03FC0100000000F81FFC3F0E70066026
:1006A0000E60FC7FF8FF00C00000FE7FFE7F060F9B
:1006B000061F063BFE73FC61000000007818FC3842
:1006C000CE7186618E731C3F181E0000000006006C
:1006D00006000600FE7FFE7F060006000600000002
:1006E000FE3FFE7F006000600060FE7FFE3F000076
:1006F0000000FE07FE1F003C0070003CFE1FFE07CE
:1007000000000000FE7FFE7F0038E00F0038FE7F13
:10071000FE7F0000000006601E78F81FE007F81F4B
:100720001E780660000000007E18FE38C0718061EF
:100730008071FE3FFE1F000000000678067C066FF9
:10074000C663F6603E601E60000011241FBECFE548
:10075000D4E0DEBFCDBF11E0A0E6B0E0E8EFFDE100
:1007600002C005900D92AE30B107D9F723E0AEE09C
:10077000B1E001C01D92A337B207E1F742D23ACBF4
:100780003FCC42E050E060EE71E08EE792E00CDB9F
:10079000089540EF50E060EF70E080E892E004DB05
:1007A00040EF50E060E070E08BE491E0FDDA089506
:1007B00042E050E060EE71E08EE792E005DB0895E4
:1007C00040EF50E060EF70E080E892E0FDDA40EF4B
:1007D00050E060E070E08BE491E0F6DA089570E0BC
:1007E00001C0782F60E027C0272F30E0F901E258E0
:1007F000FD4F8081462F50E090E0FC01EE0FFF1F7F
:10080000E80FF91FEE0FFF1FEE0FFF1FE55BFE4F16
:10081000E40FF51F8081F901EE0FFF1F2E0F3F1F20
:10082000220F331F220F331F205D3E4FF901E40FCB
:10083000F51F80836F5F6C30B8F281E0870F7723FC
:1008400081F208958CE080B911B8089584EA86BFDA
:1008500006B607FEFDCF089584E986BF089583B9E3
:1008600084E886BF06B607FEFDCF81B1803229F04D
:1008700081B1803321F480E0089580E0089581E023
:10088000089584E886BF06B607FEFDCF83B10895BC
:10089000CF92DF92EF92FF921F93CF93DF93882343
:1008A00041F088EE93E0909361008093600011E046
:1008B00001C010E0112391F0862F90E0FC01EE0FB3
:1008C000FF1FE80FF91FEE0FFF1FEE0FFF1FE85E7F
:1008D000FE4FE40FF11D80818823A1F0111133C078
:1008E000862F90E0FC01EE0FFF1FE80FF91FEE0FBF
:1008F000FF1FEE0FFF1FE85EFE4FE40FF11D80812A
:10090000882309F1C62FD0E0E42EF12C6E01CC0C27
:10091000DD1CF601EC0FFD1FEE0FFF1FEE0FFF1F9A
:10092000E05DFE4FEE0DFF1D40E0612F8081DDD2C6
:10093000CC0DDD1DCC0FDD1FCC0FDD1FC85EDE4FE3
:10094000CE0DDF1D1883DF91CF911F91FF90EF90A7
:10095000DF90CF900895FF920F931F93CF93DF9373
:10096000F12CAEC0C82F01C0C0E070DF0C2F10E02A
:10097000F801EB59FF4FD0818D2F71DF81110EC02F
:10098000F801E85BFE4F8081811199C0F801E85BB6
:10099000FE4F81E0808380934A0191C0F801E85BBB
:1009A000FE4F8081882339F0F801E85BFE4F10820A
:1009B00081E080934A01F0FE02C08FEF01C08FEE0C
:1009C0004EDF44DF8D2FE0D2D82F81E0F816C9F03A
:1009D000F81628F085E0F81609F448C06BC09D2F82
:1009E0009695969581E0892740E06C2F817050DFC5
:1009F0008D2F809541E06C2F881F8827881F48DF46
:100A000059C08D2F869511E0812742E06C2F8170AF
:100A10003FDF8D2F869586958695812743E06C2F45
:100A2000817036DF8D2F829586958770812744E00F
:100A30006C2F81702DDF8D2F829586958695837022
:100A4000812745E06C2F817023DF8D2F8695869559
:100A5000812746E06C2F81701BDF8D2F809547E04A
:100A60006C2F881F8827881F13DF24C08D2F869541
:100A700011E0812748E06C2F81700ADF8D2F869569
:100A800086958695812749E06C2F817001DF8D2F37
:100A900082958695877081274AE06C2F8170F8DEF9
:100AA000D295D695D695D3708D2F81274BE06C2F9C
:100AB0008170EEDE81E08C0FCC2309F453CFF394E8
:100AC00087E08F1508F050CFC7DEDF91CF911F91DF
:100AD0000F91FF90089581B3837F81BB8BB78068AE
:100AE0008BBF85B7886085BF08951F920F920FB6A0
:100AF0000F9211242F933F934F935F938F939F9364
:100B0000EF93FF9380911101811104C010920F01A6
:100B10001092120188E08093110180910F018930B9
:100B200018F4813030F00EC0893039F18A30C1F1CB
:100B30004AC010920E01E0911201F0E0E55CFD4F19
:100B4000108241C0829B3FC0E0911201F0E0482F2B
:100B500050E04150510921E030E002C0220F331F24
:100B60004A95E2F7E55CFD4F9081292B2083909117
:100B70000E019F5F90930E0126C090910E0191701F
:100B800090930E01829B06C09923E9F09DEF90930C
:100B90000E0119C0911117C09DEF90930E0113C063
:100BA00010920F0180910E018D3F31F08091120162
:100BB0008F5F809312010AC0E0911201F0E0E55CC2
:100BC000FD4F108203C08F5F80930F01FF91EF9163
:100BD0009F918F915F914F913F912F910F900FBEF9
:100BE0000F901F9018952EDEC8D84FD1E6E1F1E0A6
:100BF000808180628F7B808350D56DDF44D878946C
:100C000008952FEF80E792E0215080409040E1F777
:100C100000C00000B6DDBDDDE2DDE5DF02D1809180
:100C20001601807649F4E6E1F1E0808180648083FA
:100C3000F4D481E080934A0180911101811104C0B4
:100C4000809112018111A4D18091160181FF92C07F
:100C500080911401843019F580911301982F990F18
:100C6000990F990F63E0890F09D4809116018823A9
:100C7000ACF48091720390E020911301FC01EE0F1F
:100C8000FF1FE80FF91FEE0FFF1FEE0FFF1FE058C9
:100C9000FD4FE20FF11D80816ED401C027D48091F9
:100CA00014018630C9F563E080E0E8D380917103D8
:100CB00090E09C01220F331F220F331F820F931FDE
:100CC00064E080599E4F8ED48AE355D480911601FA
:100CD0008823FCF48091720390E020911301FC01C1
:100CE000EE0FFF1FE80FF91FEE0FFF1FEE0FFF1FA4
:100CF000E55BFE4FE20FF11D808190E0880F991FA8
:100D0000880F991F880F991F67E084559E4F6AD4FA
:100D100003C087E690E042D48091160182FF05C0AF
:100D2000E6E1F1E08B7F8083D5D48091160183FFCB
:100D300076CFE6E1F1E0877F8083609113018091B7
:100D40001401D0D480911401843009F068CF63E09D
:100D500080E094D38091720390E09C01220F331FB6
:100D6000820F931F880F991F880F991F80589D4FDE
:100D700027D455CF82FF11C084FF04C030DD18DDB9
:100D80001FDD01C0FEDCE6E1F1E080818F7E8B7F1C
:100D9000808343D481E080934A018091160180FFD3
:100DA00005C0E6E1F1E08E7F8083D5DD80914A01C8
:100DB000882309F434CF8091160185FD30CFC0E03F
:100DC00001C0C82F6C2F660F83E658D3EC2FF0E0DC
:100DD000E85BFE4F8081882321F080E790E0DED33E
:100DE00003C084E790E0DAD381E08C0FCC2349F391
:100DF00010924A0114CF1F93CF93DF93EC01162F6B
:100E0000C6D7112319F0C068D06802C0DF77C06868
:100E1000CE01BDD7CE018F77BAD7DF91CF911F9189
:100E2000089580E098E0B3D780E090E0B0D70895CF
:100E3000CF93DF93C82FD62F09DD88E710DD8D2FE4
:100E40000EDD8C2F0CDD08DDDF91CF910895EF9240
:100E5000FF921F93CF93DF93EC01162FF42EF6DC55
:100E600088E7FDDC8F2DFBDC7E018FEFE81AF80AA6
:100E7000FE018491F4DC1150E701B1F7EDDCDF9164
:100E8000CF911F91FF90EF90089584B3886084BB49
:100E900085B3877F85BB8FE39CE90197F1F700C09D
:100EA000000085B3886085BB40E063E18DE591E09B
:100EB000CEDF60E080E2BCDF60E081E0B9DF089572
:100EC000282F80FD03C080E090E002C080E092E027
:100ED00021FD806122FD886023FD946024FD8460F3
:100EE00025FD826026FD90610895FF920F931F9368
:100EF000CF93DF93F62E042FC82FD0E0FE01E25DE2
:100F0000FE4F1491FE01E15BFD4F8081811106C00F
:100F1000662321F0812FD4DF61E06DDFFE01E15B0C
:100F2000FD4F808190E0002E02C0959587950A9430
:100F3000E2F780FD06C0F11004C0812FC1DF60E040
:100F40005ADFFF2071F0FE01E15BFD4F908101113E
:100F500002C082E001C081E0C15BDD4F982B988325
:100F60000DC0FE01E15BFD4F8081011102C09DEFCC
:100F700001C09EEFC15BDD4F89238883DF91CF9154
:100F80001F910F91FF900895816069DC7ADC0895CC
:100F9000EF92FF920F931F93CF93DF9300D0CDB7C3
:100FA000DEB78FEF89838A83FF24FA9400E01D7FE8
:100FB0001B7F1160E02FF0E0E55CFD4F8081813EFA
:100FC00009F41460803E11F412600F5FE02FF0E02E
:100FD000E55CFD4F8081803F11F41E7F0F5F11FFA4
:100FE0004FC0E02FF0E0E55CFD4F80818B3611F1C2
:100FF00058F4843161F118F4813181F1F6C18A34F9
:1010000009F18A3561F0F1C1823781F018F4813736
:1010100061F1EBC1843791F0853721F0E6C186E0BC
:101020008983E3C119828CE18A83DFC1198284E25A
:101030008A83DBC1198283E28A83D7C1198284E162
:101040008A83D3C18FE0898380E28A83CEC1809175
:10105000150110FB80F980931501C7C1809115011E
:1010600010FB81F980931501C0C18091150110FB1F
:1010700082F9809315010F2EFFE7FF2EF02DB5C1E9
:10108000E02FF0E0E55CFD4FE0818E2F90E0FC0169
:101090003397EC37F10508F0A8C1ED5EFF4F0994D6
:1010A0001982A3C181E089830F2EF1E4FF2EF02D78
:1010B0009CC182E089830F2EF1E5FF2EF02D95C1B2
:1010C00083E089830F2EF1E3FF2EF02D8EC184E0A3
:1010D00089830F2EF0E3FF2EF02D87C185E08983F1
:1010E0000F2EF0E5FF2EF02D80C186E089837DC1B3
:1010F00087E089836894FF24F5F877C188E08983C5
:101100000F2EFAE5FF2EF02D70C189E089830F2E96
:10111000F3E5FF2EF02D69C18AE089830F2EF7E5F4
:10112000FF2EF02D62C18BE089830F2EF2E3FF2E9C
:10113000F02D5BC18CE089830F2EF9E3FF2EF02D9B
:1011400054C18DE089830F2EFFE4FF2EF02D4DC199
:101150008EE089830F2EFCE4FF2EF02D46C18FE038
:10116000898343C180E189830F2EF8E5FF2EF02D9E
:101170003CC181E189830F2EF4E4FF2EF02D35C1AF
:1011800082E189830F2EF5E4FF2EF02D2EC183E13D
:1011900089830F2EF3E3FF2EF02D27C184E189838D
:1011A0000F2EF8E3FF2EF02D20C185E189830F2E4D
:1011B000F9E4FF2EF02D19C186E189830F2EFBE49F
:1011C000FF2EF02D12C187E189830F2EFDE4FF2E43
:1011D000F02D0BC188E189830F2EF3E4FF2EF02D53
:1011E00004C189E189830F2EF6E4FF2EF02DFDC0A6
:1011F0008AE189830F2EF2E5FF2EF02DF6C08BE1F8
:1012000089830F2EF4E3FF2EF02DEFC08CE189834C
:101210000F2EF7E3FF2EF02DE8C08DE189830F2E0E
:10122000F5E5FF2EF02DE1C08EE189830F2EFAE463
:10123000FF2EF02DDAC08FE189830F2EFEE4FF2E02
:10124000F02DD3C080E289830F2EF6E5FF2EF02D1E
:10125000CCC081E289830F2EF7E4FF2EF02DC5C0AC
:1012600082E289830F2EF4E5FF2EF02DBEC083E2CB
:1012700089830F2EF5E3FF2EF02DB7C084E289831A
:101280000F2EF6E3FF2EF02DB0C085E289830F2EDE
:10129000F9E5FF2EF02DA9C086E289830F2EF8E430
:1012A000FF2EF02DA2C087E289830F2EF2E4FF2EDD
:1012B000F02D9BC0198287E08A8397C019828BE04A
:1012C0008A8393C0198284E08A836894FF24F3F8A8
:1012D0008CC08FE0898386E18A830F2EFBE2FF2E8C
:1012E000F02D83C08FE089838EE18A830F2EFDE28B
:1012F000FF2EF02D7AC08FE0898387E28A830F2E3C
:10130000FAE2FF2EF02D71C08FE089838EE08A8390
:101310000F2EFDE3FF2EF02D68C08FE089838DE056
:101320008A830F2EFBE3FF2EF02D5FC08FE08983B1
:101330008FE18A830F2EFCE2FF2EF02D56C08FE046
:10134000898387E18A830F2EFEE2FF2EF02D4DC0A8
:101350008FE0898380E28A830F2EFFE2FF2EF02D3B
:1013600044C088E2898341C089E289833EC080917C
:10137000150110FB80F98093150137C0809115018C
:1013800010FB81F98093150130C08091150110FB8D
:1013900082F98093150129C08091160181FD25C035
:1013A00010FD23C085FD21C0F4D9E6E1F1E0808184
:1013B000866088608083109214011092130115C01A
:1013C00080911601982F927081FF0FC010FD0DC003
:1013D000992359F087E08093140110921301E6E1FC
:1013E000F1E0808184608860808380911501982F6E
:1013F0009770973049F488608093150188E289835B
:101400008FEF8A8311600CC083FF0AC080911501A1
:10141000877F8093150188E289838FEF8A831E7FFF
:101420008091160181FD10C089818F3F99F010FBDA
:10143000EE24E0F841E06E2D58DD8A818F3F51F0B7
:1014400041E06E2D52DD06C010FF04C06F2DCE01AD
:1014500001967ED21D7F1B7F1E7F0F5F8091120140
:10146000081708F4A4CD109212010F900F90DF918D
:10147000CF911F910F91FF90EF900895CF93DF933D
:10148000C82FD62F60E082E2D3DCDD0F60E08D2F25
:10149000CFDC60E081E08D0FCBDC60E08C2F8F70C3
:1014A000C7DC8C2F82958F7060E08061C1DCDF919A
:1014B000CF910895CF93682F80E0E0DFC0E001C0B6
:1014C000C82F60E480E0B4DC81E08C0FCF3FC1F72F
:1014D000CF910895CF93C0E001C0C82F8C2FEADFD1
:1014E00081E08C0FC330C8F3CF910895CF93C0E053
:1014F00004C060E48FEF9CDCCF5FC231D0F3CF91AA
:101500000895CF939DEC899F912D112496959695E2
:101510009695392F330F232F220F220F230FC82F19
:10152000C21B992399F0892F90E04096880F991F4C
:101530009C01220F331F220F331F220F331F820FF4
:10154000931F40E462E18C5D9C4F81DC8C2F90E026
:101550004096880F991F9C01220F331F220F331FC3
:10156000220F331F820F931F40E462E18C5D9C4F7A
:101570006EDCCF910895805290E0880F991F9C01F6
:10158000220F331F220F331F220F331F820F931F8F
:1015900040E462E18C5D9C4F5ADC08950F931F93E9
:1015A000CF938C01C0E002C0CF5FE5DFF801EC0F04
:1015B000F11D80818111F8CFCF911F910F91089576
:1015C0000F931F93CF938C01C0E006C0F801EC0F7E
:1015D000F11D8081D0DFCF5FCB30C0F3CF911F9161
:1015E0000F9108950F931F93CF93DF938C01D62F04
:1015F000C0E001C0C82FF801EC0FF11D849190EEFE
:10160000980F9B3328F4B7DF81E08C0FCD1790F350
:10161000DF91CF911F910F910895CF93DF935ADF00
:1016200060E080E02BDF80E890E0B8DF61E080E000
:1016300025DFCEE7D2E088818F5F63DF8AE39BDF1F
:10164000888190E09C01220F331F820F931F880F27
:10165000991F880F991F80589D4FB2DF62E080E08C
:101660000DDF8CE890E09ADF63E080E007DF89819E
:101670008F5F47DF8AE37FDF898190E09C01220F43
:10168000331F820F931F880F991F880F991F80584F
:101690009D4F96DFDF91CF9108951CDF60E089E0D8
:1016A000EDDE88E990E07ADF61E089E0E7DE84EA58
:1016B00090E074DF62E082E1E1DE81EB90E06EDFDA
:1016C00063E082E1DBDE8CEB90E068DF82EC90E0AF
:1016D00065DF0895FFDE60E089E0D0DE88EC90E011
:1016E0005DDF0895CF93DF93C62F823039F128F460
:1016F000882369F08130C1F0BCC0853009F45FC037
:10170000873009F4A4C0833009F0B3C035C061E06C
:1017100084E2B4DEC11104C085ED90E03FDFA9C0D2
:101720008CED90E03BDFA5C061E080E0A7DE83EEBA
:1017300090E034DF81E08C0FE4DE9BC062E080E06B
:101740009DDE8EEE90E02ADF81E08C0FDADE80E213
:1017500012DF63E080E092DE6C2F70E0CB01880F37
:10176000991F680F791FCB01880F991F880F991F48
:1017700080589D4F25DF7DC061E084E27FDE8CEDE7
:1017800090E00CDF62E080E079DE8EEE90E006DF34
:1017900081E08C0FB6DE80E2EEDE63E080E06EDE9C
:1017A0006C2F70E0CB01880F991F860F971F880F51
:1017B000991F880F991F80589D4F02DF5AC062E021
:1017C00080E05CDE809172038F5F9BDE8AE3D3DE74
:1017D0008091720390E09C01220F331F820F931FB0
:1017E000880F991F880F991F80589D4FE9DE83E06D
:1017F00061DE63E080E042DED0E0CE01880F991F19
:10180000880F991F8C0F9D1F64E080599E4FEADE60
:101810008AE3B1DE8091720390E09C01220F331FB6
:10182000820F931F880F991F880F991F855B9E4F0A
:10183000C80FD91F888190E0880F991F880F991FC2
:10184000880F991F67E084559E4FCCDE12C061E07F
:1018500080E014DE87EF90E0A1DE63E08DE20EDE33
:10186000C11104C086E091E099DE03C08AE091E0F6
:1018700095DEDF91CF910895E09114018E2F90E0D5
:101880008830910508F05EC0FC01E157FF4F0994D4
:1018900080911301811106C081E0809314011092A0
:1018A000130150C083E080931401109213014AC0C9
:1018B00082E080931401E0911301E0937003F0E063
:1018C000E258FD4F8081809313013CC010921401B7
:1018D000E0917003F0E0E258FD4F809113018083A6
:1018E00010921301E6E1F1E08081846080832AC0D8
:1018F00084E080931401809113018093720310920D
:10190000130120C085E080931401109213011AC0C6
:1019100086E080931401809113018093710312C0BB
:1019200085E08093140180917103809313010AC0B4
:10193000E6E1F1E080819091130190FB84F98D7FC5
:1019400084608083E6E1F1E080818860808308958F
:10195000CF93DF9370911401743009F074C0683034
:1019600019F06F3709F047C081E0683009F080E076
:10197000683029F490911301992309F481C1A09151
:101980001301A81B6A2F2091720330E0462F50E00C
:10199000FA013196C901880F991F820F931F880F92
:1019A000991F880F991F80589D4FE80FF91FE081FC
:1019B000EC01C40FD51FE8836F5FE72FF0E0E85814
:1019C000FF4F80816817F8F2F901EE0FFF1FE20F59
:1019D000F31FEE0FFF1FEE0FFF1FE058FD4FE60F46
:1019E000F11D80E28083A0931301E6E1F1E08081A4
:1019F0008860808345C16F3F31F18091720390E030
:101A000020911301FC01EE0FFF1FE80FF91FEE0FED
:101A1000FF1FEE0FFF1FE058FD4FE20FF11D608327
:101A200081E0820F80931301E72FF0E0E858FF4F29
:101A30009081981710F490931301E6E1F1E0808112
:101A4000886080831DC1FC018081863021F476305E
:101A500011F012DF15C17630C9F491819F3FB1F4C6
:101A60008F3FA1F02091720330E090911301F901B2
:101A7000EE0FFF1FE20FF31FEE0FFF1FEE0FFF1F12
:101A8000E55BFE4FE90FF11D8083FAC08111F8C0BC
:101A900081818C3129F128F4873049F0843101F1BA
:101AA000EFC09DED980F923008F487C0E9C0763002
:101AB00011F4E2DEE5C0743028F4109214011092A3
:101AC000130107C083E08093140180917203809317
:101AD0001301E6E1F1E08081846088608083D0C0FA
:101AE000743061F58C3151F58091720390E0209152
:101AF000130130E0FC01EE0FFF1FE80FF91FEE0F9E
:101B0000FF1FEE0FFF1FE058FD4FE20FF31F408154
:101B10004F5F40834B3508F4B3C0AC01440F551FF1
:101B2000840F951F880F991F880F991F80589D4F0C
:101B3000FC01E20FF31F2AE52083A2C0763051F5A5
:101B40008091720390E02091130130E0FC01EE0FD0
:101B5000FF1FE80FF91FEE0FFF1FEE0FFF1FE55BE2
:101B6000FE4FE20FF31F40814F5F40834F3208F476
:101B700087C0AC01440F551F840F951F880F991F14
:101B8000880F991F855B9E4FFC01E20FF31F2EE229
:101B9000208376C0E72FF0E0E858FF4F90818091D6
:101BA0001301891708F06CC08F5F80931301E6E181
:101BB000F1E080818860808363C0743061F5843295
:101BC00051F58091720390E02091130130E0FC0107
:101BD000EE0FFF1FE80FF91FEE0FFF1FEE0FFF1FA5
:101BE000E058FD4FE20FF31F4081415040834032E7
:101BF00008F046C0AC01440F551F840F951F880F95
:101C0000991F880F991F80589D4FFC01E20FF31F09
:101C100020E2208335C0763039F58091720390E060
:101C20002091130130E0FC01EE0FFF1FE80FF91FB8
:101C3000EE0FFF1FEE0FFF1FE55BFE4FE20FF31FDE
:101C400040814423E9F0BC01660F771F860F971F80
:101C5000880F991F880F991F855B9E4FFC01E20F2B
:101C6000F31F415040830CC080911301882341F041
:101C7000815080931301E6E1F1E0808188608083E8
:101C8000DF91CF9108958EB588608EBD8EB581604D
:101C90008EBD8FE79EE39BBD8ABD89B7806189BFFA
:101CA00008951F920F920FB60F9211242F933F9316
:101CB0004F935F936F937F938F939F93AF93BF9354
:101CC000EF93FF93809162008150809362008111B5
:101CD0000EC084E680936200E6E1F1E0808187FB3C
:101CE000222720F991E0922790FB87F98083809149
:101CF000630090916400009761F0019790936400F5
:101D000080936300892B29F4E6E1F1E080818F7DE7
:101D1000808380911101882319F0815080931101F3
:101D2000809110018F5F80931001843139F4E6E1D6
:101D3000F1E08081816080831092100180916000C9
:101D400090916100009741F001979093610080931A
:101D50006000892B09F465D8FF91EF91BF91AF9195
:101D60009F918F917F916F915F914F913F912F91B3
:101D70000F900FBE0F901F90189587B38C6287BB92
:101D80008EB181608EB98DB180658DB9089528B30B
:101D90002B7F28BB9FB9779BFECF8FB9779BFECF58
:101DA00088B3846088BB0895DC01CB01FC01E19914
:101DB000FECF06C0FFBBEEBBE09A31960DB20D928E
:101DC00041505040B8F70895DC01CB0102C02D917D
:101DD00005D041505040D8F70895262FE199FECF05
:101DE0009FBB8EBB2DBB0FB6F894E29AE19A0FBE53
:081DF00001960895F894FFCF5D
:101DF800E8036488134C4A2020202020202020005B
:101E0800455252004F4B2000010113130B0B2F01B9
:101E18004A4F59535449434B20313A004A4F59537A
:101E28005449434B20323A005A58204B4559424FA7
:101E3800415244002B32204A4F59535449434B5383
:101E480000434F4E54524F4C4C4552005645523A5F
:101E58002000312E332E36004A4F59205345545412
:101E6800494E47530053454C454354002045444987
:101E78005420004A4F59535443494B3A200050527A
:101E8800455345543A200053415645204348414E56
:0E1E9800474553203F004E4F20005945530050
:00000001FF
